{
  "address": "0x50B5c616F0e9B76CfE2B82a88b6cAFdBE5E34eC5",
  "abi": [
    {
      "inputs": [
        {
          "internalType": "address",
          "name": "priceFeedAddress",
          "type": "address"
        }
      ],
      "stateMutability": "nonpayable",
      "type": "constructor"
    },
    {
      "inputs": [],
      "name": "FundMe__NotOwner",
      "type": "error"
    },
    {
      "stateMutability": "payable",
      "type": "fallback"
    },
    {
      "inputs": [],
      "name": "MINIMUN_USD",
      "outputs": [
        {
          "internalType": "uint256",
          "name": "",
          "type": "uint256"
        }
      ],
      "stateMutability": "view",
      "type": "function"
    },
    {
      "inputs": [],
      "name": "fund",
      "outputs": [],
      "stateMutability": "payable",
      "type": "function"
    },
    {
      "inputs": [
        {
          "internalType": "uint256",
          "name": "index",
          "type": "uint256"
        }
      ],
      "name": "getFunder",
      "outputs": [
        {
          "internalType": "address",
          "name": "",
          "type": "address"
        }
      ],
      "stateMutability": "view",
      "type": "function"
    },
    {
      "inputs": [
        {
          "internalType": "address",
          "name": "funderAddress",
          "type": "address"
        }
      ],
      "name": "getFundersToAmountFunded",
      "outputs": [
        {
          "internalType": "uint256",
          "name": "",
          "type": "uint256"
        }
      ],
      "stateMutability": "view",
      "type": "function"
    },
    {
      "inputs": [],
      "name": "getOwner",
      "outputs": [
        {
          "internalType": "address",
          "name": "",
          "type": "address"
        }
      ],
      "stateMutability": "view",
      "type": "function"
    },
    {
      "inputs": [],
      "name": "getPriceFeed",
      "outputs": [
        {
          "internalType": "contract AggregatorV3Interface",
          "name": "",
          "type": "address"
        }
      ],
      "stateMutability": "view",
      "type": "function"
    },
    {
      "inputs": [],
      "name": "withdraw",
      "outputs": [],
      "stateMutability": "nonpayable",
      "type": "function"
    },
    {
      "stateMutability": "payable",
      "type": "receive"
    }
  ],
  "transactionHash": "0x1dc7f34dc7fc26663e892bd4b6ed38122fd8f770577986e411f4c047fb2e66c1",
  "args": [
    "0xD4a33860578De61DBAbDc8BFdb98FD742fA7028e"
  ],
  "numDeployments": 1,
  "solcInputHash": "345b18d5e2de8c90bd6344a0fec932a5",
  "bytecode": "0x60a060405234801561001057600080fd5b50604051620010223803806200102283398181016040528101906100349190610112565b80600260006101000a81548173ffffffffffffffffffffffffffffffffffffffff021916908373ffffffffffffffffffffffffffffffffffffffff1602179055503373ffffffffffffffffffffffffffffffffffffffff1660808173ffffffffffffffffffffffffffffffffffffffff16815250505061013f565b600080fd5b600073ffffffffffffffffffffffffffffffffffffffff82169050919050565b60006100df826100b4565b9050919050565b6100ef816100d4565b81146100fa57600080fd5b50565b60008151905061010c816100e6565b92915050565b600060208284031215610128576101276100af565b5b6000610136848285016100fd565b91505092915050565b608051610ec062000162600039600081816102f201526105340152610ec06000f3fe6080604052600436106100745760003560e01c80639e87a5cd1161004e5780639e87a5cd146100fa578063b60d428814610125578063d045d6511461012f578063d7b4750c1461016c57610083565b80632100f4791461008d5780633ccfd60b146100b8578063893d20e8146100cf57610083565b36610083576100816101a9565b005b61008b6101a9565b005b34801561009957600080fd5b506100a26102e3565b6040516100af91906107ae565b60405180910390f35b3480156100c457600080fd5b506100cd6102f0565b005b3480156100db57600080fd5b506100e4610530565b6040516100f1919061080a565b60405180910390f35b34801561010657600080fd5b5061010f610558565b60405161011c9190610884565b60405180910390f35b61012d6101a9565b005b34801561013b57600080fd5b50610156600480360381019061015191906108d0565b610582565b60405161016391906107ae565b60405180910390f35b34801561017857600080fd5b50610193600480360381019061018e9190610929565b6105cb565b6040516101a0919061080a565b60405180910390f35b6802b5e3af16b18800006101e8600260009054906101000a900473ffffffffffffffffffffffffffffffffffffffff163461061290919063ffffffff16565b11610228576040517f08c379a000000000000000000000000000000000000000000000000000000000815260040161021f906109b3565b60405180910390fd5b34600160003373ffffffffffffffffffffffffffffffffffffffff1673ffffffffffffffffffffffffffffffffffffffff16815260200190815260200160002060008282546102779190610a02565b925050819055506000339080600181540180825580915050600190039060005260206000200160009091909190916101000a81548173ffffffffffffffffffffffffffffffffffffffff021916908373ffffffffffffffffffffffffffffffffffffffff160217905550565b6802b5e3af16b188000081565b7f000000000000000000000000000000000000000000000000000000000000000073ffffffffffffffffffffffffffffffffffffffff163373ffffffffffffffffffffffffffffffffffffffff1614610375576040517f579610db00000000000000000000000000000000000000000000000000000000815260040160405180910390fd5b60005b60008054905081101561042057600080828154811061039a57610399610a58565b5b9060005260206000200160009054906101000a900473ffffffffffffffffffffffffffffffffffffffff1690506000600160008373ffffffffffffffffffffffffffffffffffffffff1673ffffffffffffffffffffffffffffffffffffffff1681526020019081526020016000208190555050808061041890610a87565b915050610378565b50600067ffffffffffffffff81111561043c5761043b610ad0565b5b60405190808252806020026020018201604052801561046a5781602001602082028036833780820191505090505b50600090805190602001906104809291906106ee565b5060003373ffffffffffffffffffffffffffffffffffffffff16476040516104a790610b30565b60006040518083038185875af1925050503d80600081146104e4576040519150601f19603f3d011682016040523d82523d6000602084013e6104e9565b606091505b505090508061052d576040517f08c379a000000000000000000000000000000000000000000000000000000000815260040161052490610b91565b60405180910390fd5b50565b60007f0000000000000000000000000000000000000000000000000000000000000000905090565b6000600260009054906101000a900473ffffffffffffffffffffffffffffffffffffffff16905090565b6000600160008373ffffffffffffffffffffffffffffffffffffffff1673ffffffffffffffffffffffffffffffffffffffff168152602001908152602001600020549050919050565b60008082815481106105e0576105df610a58565b5b9060005260206000200160009054906101000a900473ffffffffffffffffffffffffffffffffffffffff169050919050565b60008061061e8361064e565b90506000670de0b6b3a764000082866106379190610bb1565b6106419190610c3a565b9050809250505092915050565b6000808273ffffffffffffffffffffffffffffffffffffffff1663feaf968c6040518163ffffffff1660e01b815260040160a06040518083038186803b15801561069757600080fd5b505afa1580156106ab573d6000803e3d6000fd5b505050506040513d601f19601f820116820180604052508101906106cf9190610cf8565b5050509150506402540be400816106e69190610d73565b915050919050565b828054828255906000526020600020908101928215610767579160200282015b828111156107665782518260006101000a81548173ffffffffffffffffffffffffffffffffffffffff021916908373ffffffffffffffffffffffffffffffffffffffff1602179055509160200191906001019061070e565b5b5090506107749190610778565b5090565b5b80821115610791576000816000905550600101610779565b5090565b6000819050919050565b6107a881610795565b82525050565b60006020820190506107c3600083018461079f565b92915050565b600073ffffffffffffffffffffffffffffffffffffffff82169050919050565b60006107f4826107c9565b9050919050565b610804816107e9565b82525050565b600060208201905061081f60008301846107fb565b92915050565b6000819050919050565b600061084a610845610840846107c9565b610825565b6107c9565b9050919050565b600061085c8261082f565b9050919050565b600061086e82610851565b9050919050565b61087e81610863565b82525050565b60006020820190506108996000830184610875565b92915050565b600080fd5b6108ad816107e9565b81146108b857600080fd5b50565b6000813590506108ca816108a4565b92915050565b6000602082840312156108e6576108e561089f565b5b60006108f4848285016108bb565b91505092915050565b61090681610795565b811461091157600080fd5b50565b600081359050610923816108fd565b92915050565b60006020828403121561093f5761093e61089f565b5b600061094d84828501610914565b91505092915050565b600082825260208201905092915050565b7f596f75206e65656420746f207370656e64206d6f726520455448000000000000600082015250565b600061099d601a83610956565b91506109a882610967565b602082019050919050565b600060208201905081810360008301526109cc81610990565b9050919050565b7f4e487b7100000000000000000000000000000000000000000000000000000000600052601160045260246000fd5b6000610a0d82610795565b9150610a1883610795565b9250827fffffffffffffffffffffffffffffffffffffffffffffffffffffffffffffffff03821115610a4d57610a4c6109d3565b5b828201905092915050565b7f4e487b7100000000000000000000000000000000000000000000000000000000600052603260045260246000fd5b6000610a9282610795565b91507fffffffffffffffffffffffffffffffffffffffffffffffffffffffffffffffff821415610ac557610ac46109d3565b5b600182019050919050565b7f4e487b7100000000000000000000000000000000000000000000000000000000600052604160045260246000fd5b600081905092915050565b50565b6000610b1a600083610aff565b9150610b2582610b0a565b600082019050919050565b6000610b3b82610b0d565b9150819050919050565b7f43616c6c206661696c6564000000000000000000000000000000000000000000600082015250565b6000610b7b600b83610956565b9150610b8682610b45565b602082019050919050565b60006020820190508181036000830152610baa81610b6e565b9050919050565b6000610bbc82610795565b9150610bc783610795565b9250817fffffffffffffffffffffffffffffffffffffffffffffffffffffffffffffffff0483118215151615610c0057610bff6109d3565b5b828202905092915050565b7f4e487b7100000000000000000000000000000000000000000000000000000000600052601260045260246000fd5b6000610c4582610795565b9150610c5083610795565b925082610c6057610c5f610c0b565b5b828204905092915050565b600069ffffffffffffffffffff82169050919050565b610c8a81610c6b565b8114610c9557600080fd5b50565b600081519050610ca781610c81565b92915050565b6000819050919050565b610cc081610cad565b8114610ccb57600080fd5b50565b600081519050610cdd81610cb7565b92915050565b600081519050610cf2816108fd565b92915050565b600080600080600060a08688031215610d1457610d1361089f565b5b6000610d2288828901610c98565b9550506020610d3388828901610cce565b9450506040610d4488828901610ce3565b9350506060610d5588828901610ce3565b9250506080610d6688828901610c98565b9150509295509295909350565b6000610d7e82610cad565b9150610d8983610cad565b9250827f7fffffffffffffffffffffffffffffffffffffffffffffffffffffffffffffff0482116000841360008413161615610dc857610dc76109d3565b5b817f80000000000000000000000000000000000000000000000000000000000000000583126000841260008413161615610e0557610e046109d3565b5b827f80000000000000000000000000000000000000000000000000000000000000000582126000841360008412161615610e4257610e416109d3565b5b827f7fffffffffffffffffffffffffffffffffffffffffffffffffffffffffffffff0582126000841260008412161615610e7f57610e7e6109d3565b5b82820290509291505056fea2646970667358221220d9058fe24d9ef3bd63f2e5ed25a94e86dbbc7d65f1f82698f3b694ccc888270464736f6c63430008090033",
  "devdoc": {
    "kind": "dev",
    "methods": {},
    "version": 1
  },
  "userdoc": {
    "kind": "user",
    "methods": {},
    "version": 1
  },
  "storageLayout": {
    "storage": [
      {
        "astId": 66,
        "contract": "contracts/FundMe.sol:FundMe",
        "label": "funders",
        "offset": 0,
        "slot": "0",
        "type": "t_array(t_address)dyn_storage"
      },
      {
        "astId": 70,
        "contract": "contracts/FundMe.sol:FundMe",
        "label": "fundersToAmountFunded",
        "offset": 0,
        "slot": "1",
        "type": "t_mapping(t_address,t_uint256)"
      },
      {
        "astId": 73,
        "contract": "contracts/FundMe.sol:FundMe",
        "label": "priceFeed",
        "offset": 0,
        "slot": "2",
        "type": "t_contract(AggregatorV3Interface)45"
      }
    ],
    "types": {
      "t_address": {
        "encoding": "inplace",
        "label": "address",
        "numberOfBytes": "20"
      },
      "t_array(t_address)dyn_storage": {
        "base": "t_address",
        "encoding": "dynamic_array",
        "label": "address[]",
        "numberOfBytes": "32"
      },
      "t_contract(AggregatorV3Interface)45": {
        "encoding": "inplace",
        "label": "contract AggregatorV3Interface",
        "numberOfBytes": "20"
      },
      "t_mapping(t_address,t_uint256)": {
        "encoding": "mapping",
        "key": "t_address",
        "label": "mapping(address => uint256)",
        "numberOfBytes": "32",
        "value": "t_uint256"
      },
      "t_uint256": {
        "encoding": "inplace",
        "label": "uint256",
        "numberOfBytes": "32"
      }
    }
  }
}